{
  "transactions": [
    {
      "hash": "0x0875e6183f7fe2e21c5851435df66d86f2399cc51801bcb80e84a9cc88b7530c",
      "transactionType": "CALL",
      "contractName": "LinkToken",
      "contractAddress": "0x779877A7B0D9E8603169DdbD7836e478b4624789",
      "function": "transferAndCall(address,uint256,bytes)",
      "arguments": [
        "0x8103B0A8A00be2DDC778e6e7eaa21791Cd364625",
        "3000000000000000000",
        "0x00000000000000000000000000000000000000000000000000000000000020c0"
      ],
      "transaction": {
        "type": "0x02",
        "from": "0x1e1ac51fcbbc6ec6a77d83e5a1a47da7f53fa7e5",
        "to": "0x779877a7b0d9e8603169ddbd7836e478b4624789",
        "gas": "0x13fbe",
        "value": "0x0",
        "data": "0x4000aea00000000000000000000000008103b0a8a00be2ddc778e6e7eaa21791cd36462500000000000000000000000000000000000000000000000029a2241af62c00000000000000000000000000000000000000000000000000000000000000000060000000000000000000000000000000000000000000000000000000000000002000000000000000000000000000000000000000000000000000000000000020c0",
        "nonce": "0x8",
        "accessList": []
      },
      "additionalContracts": [],
      "isFixedGasLimit": false
    }
  ],
  "receipts": [
    {
      "transactionHash": "0x0875e6183f7fe2e21c5851435df66d86f2399cc51801bcb80e84a9cc88b7530c",
      "transactionIndex": "0x14",
      "blockHash": "0xffc9feae81df7e8b5df9db553ee46361eeb593d0f9badca07366de88d72bf4ad",
      "blockNumber": "0x4d04e2",
      "from": "0x1e1ac51FCBBC6eC6A77D83E5a1A47da7f53fA7E5",
      "to": "0x779877A7B0D9E8603169DdbD7836e478b4624789",
      "cumulativeGasUsed": "0x161d8d",
      "gasUsed": "0xe77e",
      "contractAddress": null,
      "logs": [
        {
          "address": "0x779877A7B0D9E8603169DdbD7836e478b4624789",
          "topics": [
            "0xddf252ad1be2c89b69c2b068fc378daa952ba7f163c4a11628f55a4df523b3ef",
            "0x0000000000000000000000001e1ac51fcbbc6ec6a77d83e5a1a47da7f53fa7e5",
            "0x0000000000000000000000008103b0a8a00be2ddc778e6e7eaa21791cd364625"
          ],
          "data": "0x00000000000000000000000000000000000000000000000029a2241af62c0000",
          "blockHash": "0xffc9feae81df7e8b5df9db553ee46361eeb593d0f9badca07366de88d72bf4ad",
          "blockNumber": "0x4d04e2",
          "transactionHash": "0x0875e6183f7fe2e21c5851435df66d86f2399cc51801bcb80e84a9cc88b7530c",
          "transactionIndex": "0x14",
          "logIndex": "0xb",
          "removed": false
        },
        {
          "address": "0x779877A7B0D9E8603169DdbD7836e478b4624789",
          "topics": [
            "0xe19260aff97b920c7df27010903aeb9c8d2be5d310a2c67824cf3f15396e4c16",
            "0x0000000000000000000000001e1ac51fcbbc6ec6a77d83e5a1a47da7f53fa7e5",
            "0x0000000000000000000000008103b0a8a00be2ddc778e6e7eaa21791cd364625"
          ],
          "data": "0x00000000000000000000000000000000000000000000000029a2241af62c00000000000000000000000000000000000000000000000000000000000000000040000000000000000000000000000000000000000000000000000000000000002000000000000000000000000000000000000000000000000000000000000020c0",
          "blockHash": "0xffc9feae81df7e8b5df9db553ee46361eeb593d0f9badca07366de88d72bf4ad",
          "blockNumber": "0x4d04e2",
          "transactionHash": "0x0875e6183f7fe2e21c5851435df66d86f2399cc51801bcb80e84a9cc88b7530c",
          "transactionIndex": "0x14",
          "logIndex": "0xc",
          "removed": false
        },
        {
          "address": "0x8103B0A8A00be2DDC778e6e7eaa21791Cd364625",
          "topics": [
            "0xd39ec07f4e209f627a4c427971473820dc129761ba28de8906bd56f57101d4f8",
            "0x00000000000000000000000000000000000000000000000000000000000020c0"
          ],
          "data": "0x00000000000000000000000000000000000000000000000029a2241af62c000000000000000000000000000000000000000000000000000053444835ec580000",
          "blockHash": "0xffc9feae81df7e8b5df9db553ee46361eeb593d0f9badca07366de88d72bf4ad",
          "blockNumber": "0x4d04e2",
          "transactionHash": "0x0875e6183f7fe2e21c5851435df66d86f2399cc51801bcb80e84a9cc88b7530c",
          "transactionIndex": "0x14",
          "logIndex": "0xd",
          "removed": false
        }
      ],
      "status": "0x1",
      "logsBloom": "0x0000001400000000000000000000000000000000000000020000000002000000000000000000800000000040000000000000000000000000000000000000000000000000000000000000000800000000010000000000000000002000000000000000000000000000000000000000000000000000401000000000001000000000000000000c000020000000000000800010000020000000000000000000000000000000000000000000000000000000000000000000000000000400000000000000000002000000000000000000000000000008000000000100000000000000080000000000000000000001000000000000000000000000000000000000000000",
      "type": "0x2",
      "effectiveGasPrice": "0x77de406f9"
    }
  ],
  "libraries": [],
  "pending": [],
  "returns": {},
  "timestamp": 1704729373,
  "chain": 11155111,
  "multi": false,
  "commit": "6c588f9"
}