{
  "transactions": [
    {
      "hash": "0x0875e6183f7fe2e21c5851435df66d86f2399cc51801bcb80e84a9cc88b7530c",
      "transactionType": "CALL",
      "contractName": "LinkToken",
      "contractAddress": "0x779877A7B0D9E8603169DdbD7836e478b4624789",
      "function": "transferAndCall(address,uint256,bytes)",
      "arguments": [
        "0x8103B0A8A00be2DDC778e6e7eaa21791Cd364625",
        "3000000000000000000",
        "0x00000000000000000000000000000000000000000000000000000000000020c0"
      ],
      "transaction": {
        "type": "0x02",
        "from": "0x1e1ac51fcbbc6ec6a77d83e5a1a47da7f53fa7e5",
        "to": "0x779877a7b0d9e8603169ddbd7836e478b4624789",
        "gas": "0x13fbe",
        "value": "0x0",
        "data": "0x4000aea00000000000000000000000008103b0a8a00be2ddc778e6e7eaa21791cd36462500000000000000000000000000000000000000000000000029a2241af62c00000000000000000000000000000000000000000000000000000000000000000060000000000000000000000000000000000000000000000000000000000000002000000000000000000000000000000000000000000000000000000000000020c0",
        "nonce": "0x8",
        "accessList": []
      },
      "additionalContracts": [],
      "isFixedGasLimit": false
    }
  ],
  "receipts": [],
  "libraries": [],
  "pending": [
    "0x0875e6183f7fe2e21c5851435df66d86f2399cc51801bcb80e84a9cc88b7530c"
  ],
  "returns": {},
  "timestamp": 1704729367,
  "chain": 11155111,
  "multi": false,
  "commit": "6c588f9"
}